{
  "_format": "hh-sol-artifact-1",
  "contractName": "Greetings",
  "sourceName": "contracts/Greetings.sol",
  "abi": [
    {
      "inputs": [],
      "stateMutability": "nonpayable",
      "type": "constructor"
    },
    {
      "anonymous": false,
      "inputs": [
        {
          "indexed": false,
          "internalType": "uint256",
          "name": "amount",
          "type": "uint256"
        },
        {
          "indexed": false,
          "internalType": "uint256",
          "name": "when",
          "type": "uint256"
        }
      ],
      "name": "Withdrawal",
      "type": "event"
    },
    {
      "inputs": [],
      "name": "deposite",
      "outputs": [],
      "stateMutability": "payable",
      "type": "function"
    },
    {
      "inputs": [],
      "name": "getGreetngs",
      "outputs": [
        {
          "internalType": "string",
          "name": "",
          "type": "string"
        }
      ],
      "stateMutability": "view",
      "type": "function"
    },
    {
      "inputs": [],
      "name": "message",
      "outputs": [
        {
          "internalType": "string",
          "name": "",
          "type": "string"
        }
      ],
      "stateMutability": "view",
      "type": "function"
    },
    {
      "inputs": [],
      "name": "owner",
      "outputs": [
        {
          "internalType": "address payable",
          "name": "",
          "type": "address"
        }
      ],
      "stateMutability": "view",
      "type": "function"
    },
    {
      "inputs": [
        {
          "internalType": "string",
          "name": "_message",
          "type": "string"
        }
      ],
      "name": "setGreeting",
      "outputs": [
        {
          "internalType": "bool",
          "name": "",
          "type": "bool"
        }
      ],
      "stateMutability": "nonpayable",
      "type": "function"
    }
  ],
  "bytecode": "0x608060405234801561001057600080fd5b5033600160006101000a81548173ffffffffffffffffffffffffffffffffffffffff021916908373ffffffffffffffffffffffffffffffffffffffff16021790555061086e806100616000396000f3fe60806040526004361061004a5760003560e01c806331361ffc1461004f5780638da5cb5b1461007a578063a4136862146100a5578063a50ec326146100e2578063e21f37ce146100ec575b600080fd5b34801561005b57600080fd5b50610064610117565b604051610071919061030a565b60405180910390f35b34801561008657600080fd5b5061008f6101a9565b60405161009c919061036d565b60405180910390f35b3480156100b157600080fd5b506100cc60048036038101906100c791906104d1565b6101cf565b6040516100d99190610535565b60405180910390f35b6100ea6101ea565b005b3480156100f857600080fd5b506101016101ec565b60405161010e919061030a565b60405180910390f35b6060600080546101269061057f565b80601f01602080910402602001604051908101604052809291908181526020018280546101529061057f565b801561019f5780601f106101745761010080835404028352916020019161019f565b820191906000526020600020905b81548152906001019060200180831161018257829003601f168201915b5050505050905090565b600160009054906101000a900473ffffffffffffffffffffffffffffffffffffffff1681565b600081600090816101e09190610766565b5060019050919050565b565b600080546101f99061057f565b80601f01602080910402602001604051908101604052809291908181526020018280546102259061057f565b80156102725780601f1061024757610100808354040283529160200191610272565b820191906000526020600020905b81548152906001019060200180831161025557829003601f168201915b505050505081565b600081519050919050565b600082825260208201905092915050565b60005b838110156102b4578082015181840152602081019050610299565b60008484015250505050565b6000601f19601f8301169050919050565b60006102dc8261027a565b6102e68185610285565b93506102f6818560208601610296565b6102ff816102c0565b840191505092915050565b6000602082019050818103600083015261032481846102d1565b905092915050565b600073ffffffffffffffffffffffffffffffffffffffff82169050919050565b60006103578261032c565b9050919050565b6103678161034c565b82525050565b6000602082019050610382600083018461035e565b92915050565b6000604051905090565b600080fd5b600080fd5b600080fd5b600080fd5b7f4e487b7100000000000000000000000000000000000000000000000000000000600052604160045260246000fd5b6103de826102c0565b810181811067ffffffffffffffff821117156103fd576103fc6103a6565b5b80604052505050565b6000610410610388565b905061041c82826103d5565b919050565b600067ffffffffffffffff82111561043c5761043b6103a6565b5b610445826102c0565b9050602081019050919050565b82818337600083830152505050565b600061047461046f84610421565b610406565b9050828152602081018484840111156104905761048f6103a1565b5b61049b848285610452565b509392505050565b600082601f8301126104b8576104b761039c565b5b81356104c8848260208601610461565b91505092915050565b6000602082840312156104e7576104e6610392565b5b600082013567ffffffffffffffff81111561050557610504610397565b5b610511848285016104a3565b91505092915050565b60008115159050919050565b61052f8161051a565b82525050565b600060208201905061054a6000830184610526565b92915050565b7f4e487b7100000000000000000000000000000000000000000000000000000000600052602260045260246000fd5b6000600282049050600182168061059757607f821691505b6020821081036105aa576105a9610550565b5b50919050565b60008190508160005260206000209050919050565b60006020601f8301049050919050565b600082821b905092915050565b6000600883026106127fffffffffffffffffffffffffffffffffffffffffffffffffffffffffffffffff826105d5565b61061c86836105d5565b95508019841693508086168417925050509392505050565b6000819050919050565b6000819050919050565b600061066361065e61065984610634565b61063e565b610634565b9050919050565b6000819050919050565b61067d83610648565b6106916106898261066a565b8484546105e2565b825550505050565b600090565b6106a6610699565b6106b1818484610674565b505050565b5b818110156106d5576106ca60008261069e565b6001810190506106b7565b5050565b601f82111561071a576106eb816105b0565b6106f4846105c5565b81016020851015610703578190505b61071761070f856105c5565b8301826106b6565b50505b505050565b600082821c905092915050565b600061073d6000198460080261071f565b1980831691505092915050565b6000610756838361072c565b9150826002028217905092915050565b61076f8261027a565b67ffffffffffffffff811115610788576107876103a6565b5b610792825461057f565b61079d8282856106d9565b600060209050601f8311600181146107d057600084156107be578287015190505b6107c8858261074a565b865550610830565b601f1984166107de866105b0565b60005b82811015610806578489015182556001820191506020850194506020810190506107e1565b86831015610823578489015161081f601f89168261072c565b8355505b6001600288020188555050505b50505050505056fea2646970667358221220481fba63cb02703e87c21c6c72dc4bd8687fd21a896ebd66f5342d894147679864736f6c63430008110033",
  "linkReferences": {},
  "deployedLinkReferences": {}
}